{
  "_format": "hh-sol-artifact-1",
  "contractName": "CampaignFactory",
  "sourceName": "contracts/newcontract.sol",
  "abi": [
    {
      "inputs": [
        {
          "internalType": "uint256",
          "name": "minimum",
          "type": "uint256"
        },
        {
          "internalType": "string",
          "name": "name",
          "type": "string"
        },
        {
          "internalType": "string",
          "name": "description",
          "type": "string"
        },
        {
          "internalType": "string",
          "name": "image",
          "type": "string"
        },
        {
          "internalType": "uint256",
          "name": "target",
          "type": "uint256"
        }
      ],
      "name": "createCampaign",
      "outputs": [],
      "stateMutability": "nonpayable",
      "type": "function"
    },
    {
      "inputs": [
        {
          "internalType": "uint256",
          "name": "",
          "type": "uint256"
        }
      ],
      "name": "deployedCampaigns",
      "outputs": [
        {
          "internalType": "address",
          "name": "",
          "type": "address"
        }
      ],
      "stateMutability": "view",
      "type": "function"
    },
    {
      "inputs": [],
      "name": "getDeployedCampaigns",
      "outputs": [
        {
          "internalType": "address[]",
          "name": "",
          "type": "address[]"
        }
      ],
      "stateMutability": "view",
      "type": "function"
    }
  ],
  "bytecode": "0x6080604052348015600f57600080fd5b506126368061001f6000396000f3fe608060405234801561001057600080fd5b50600436106100415760003560e01c8063339d50a5146100465780634acb9d4f14610076578063d4ddd71a14610094575b600080fd5b610060600480360381019061005b9190610281565b6100b0565b60405161006d91906102ef565b60405180910390f35b61007e6100ef565b60405161008b91906103c8565b60405180910390f35b6100ae60048036038101906100a99190610530565b61017d565b005b600081815481106100c057600080fd5b906000526020600020016000915054906101000a900473ffffffffffffffffffffffffffffffffffffffff1681565b6060600080548060200260200160405190810160405280929190818152602001828054801561017357602002820191906000526020600020905b8160009054906101000a900473ffffffffffffffffffffffffffffffffffffffff1673ffffffffffffffffffffffffffffffffffffffff1681526020019060010190808311610129575b5050505050905090565b60008533868686866040516101919061022a565b6101a09695949392919061068d565b604051809103906000f0801580156101bc573d6000803e3d6000fd5b5090506000819080600181540180825580915050600190039060005260206000200160009091909190916101000a81548173ffffffffffffffffffffffffffffffffffffffff021916908373ffffffffffffffffffffffffffffffffffffffff160217905550505050505050565b611efd8061070483390190565b6000604051905090565b600080fd5b600080fd5b6000819050919050565b61025e8161024b565b811461026957600080fd5b50565b60008135905061027b81610255565b92915050565b60006020828403121561029757610296610241565b5b60006102a58482850161026c565b91505092915050565b600073ffffffffffffffffffffffffffffffffffffffff82169050919050565b60006102d9826102ae565b9050919050565b6102e9816102ce565b82525050565b600060208201905061030460008301846102e0565b92915050565b600081519050919050565b600082825260208201905092915050565b6000819050602082019050919050565b61033f816102ce565b82525050565b60006103518383610336565b60208301905092915050565b6000602082019050919050565b60006103758261030a565b61037f8185610315565b935061038a83610326565b8060005b838110156103bb5781516103a28882610345565b97506103ad8361035d565b92505060018101905061038e565b5085935050505092915050565b600060208201905081810360008301526103e2818461036a565b905092915050565b600080fd5b600080fd5b6000601f19601f8301169050919050565b7f4e487b7100000000000000000000000000000000000000000000000000000000600052604160045260246000fd5b61043d826103f4565b810181811067ffffffffffffffff8211171561045c5761045b610405565b5b80604052505050565b600061046f610237565b905061047b8282610434565b919050565b600067ffffffffffffffff82111561049b5761049a610405565b5b6104a4826103f4565b9050602081019050919050565b82818337600083830152505050565b60006104d36104ce84610480565b610465565b9050828152602081018484840111156104ef576104ee6103ef565b5b6104fa8482856104b1565b509392505050565b600082601f830112610517576105166103ea565b5b81356105278482602086016104c0565b91505092915050565b600080600080600060a0868803121561054c5761054b610241565b5b600061055a8882890161026c565b955050602086013567ffffffffffffffff81111561057b5761057a610246565b5b61058788828901610502565b945050604086013567ffffffffffffffff8111156105a8576105a7610246565b5b6105b488828901610502565b935050606086013567ffffffffffffffff8111156105d5576105d4610246565b5b6105e188828901610502565b92505060806105f28882890161026c565b9150509295509295909350565b6106088161024b565b82525050565b600081519050919050565b600082825260208201905092915050565b60005b8381101561064857808201518184015260208101905061062d565b60008484015250505050565b600061065f8261060e565b6106698185610619565b935061067981856020860161062a565b610682816103f4565b840191505092915050565b600060c0820190506106a260008301896105ff565b6106af60208301886102e0565b81810360408301526106c18187610654565b905081810360608301526106d58186610654565b905081810360808301526106e98185610654565b90506106f860a08301846105ff565b97965050505050505056fe608060405234801561001057600080fd5b50604051611efd380380611efd833981810160405281019061003291906102c5565b84600160006101000a81548173ffffffffffffffffffffffffffffffffffffffff021916908373ffffffffffffffffffffffffffffffffffffffff16021790555085600281905550836003908161008991906105bd565b50826004908161009991906105bd565b5081600590816100a991906105bd565b508060068190555050505050505061068f565b6000604051905090565b600080fd5b600080fd5b6000819050919050565b6100e3816100d0565b81146100ee57600080fd5b50565b600081519050610100816100da565b92915050565b600073ffffffffffffffffffffffffffffffffffffffff82169050919050565b600061013182610106565b9050919050565b61014181610126565b811461014c57600080fd5b50565b60008151905061015e81610138565b92915050565b600080fd5b600080fd5b6000601f19601f8301169050919050565b7f4e487b7100000000000000000000000000000000000000000000000000000000600052604160045260246000fd5b6101b78261016e565b810181811067ffffffffffffffff821117156101d6576101d561017f565b5b80604052505050565b60006101e96100bc565b90506101f582826101ae565b919050565b600067ffffffffffffffff8211156102155761021461017f565b5b61021e8261016e565b9050602081019050919050565b60005b8381101561024957808201518184015260208101905061022e565b60008484015250505050565b6000610268610263846101fa565b6101df565b90508281526020810184848401111561028457610283610169565b5b61028f84828561022b565b509392505050565b600082601f8301126102ac576102ab610164565b5b81516102bc848260208601610255565b91505092915050565b60008060008060008060c087890312156102e2576102e16100c6565b5b60006102f089828a016100f1565b965050602061030189828a0161014f565b955050604087015167ffffffffffffffff811115610322576103216100cb565b5b61032e89828a01610297565b945050606087015167ffffffffffffffff81111561034f5761034e6100cb565b5b61035b89828a01610297565b935050608087015167ffffffffffffffff81111561037c5761037b6100cb565b5b61038889828a01610297565b92505060a061039989828a016100f1565b9150509295509295509295565b600081519050919050565b7f4e487b7100000000000000000000000000000000000000000000000000000000600052602260045260246000fd5b600060028204905060018216806103f857607f821691505b60208210810361040b5761040a6103b1565b5b50919050565b60008190508160005260206000209050919050565b60006020601f8301049050919050565b600082821b905092915050565b6000600883026104737fffffffffffffffffffffffffffffffffffffffffffffffffffffffffffffffff82610436565b61047d8683610436565b95508019841693508086168417925050509392505050565b6000819050919050565b60006104ba6104b56104b0846100d0565b610495565b6100d0565b9050919050565b6000819050919050565b6104d48361049f565b6104e86104e0826104c1565b848454610443565b825550505050565b600090565b6104fd6104f0565b6105088184846104cb565b505050565b5b8181101561052c576105216000826104f5565b60018101905061050e565b5050565b601f8211156105715761054281610411565b61054b84610426565b8101602085101561055a578190505b61056e61056685610426565b83018261050d565b50505b505050565b600082821c905092915050565b600061059460001984600802610576565b1980831691505092915050565b60006105ad8383610583565b9150826002028217905092915050565b6105c6826103a6565b67ffffffffffffffff8111156105df576105de61017f565b5b6105e982546103e0565b6105f4828285610530565b600060209050601f8311600181146106275760008415610615578287015190505b61061f85826105a1565b865550610687565b601f19841661063586610411565b60005b8281101561065d57848901518255600182019150602085019450602081019050610638565b8683101561067a5784890151610676601f891682610583565b8355505b6001600288020188555050505b505050505050565b61185f8061069e6000396000f3fe6080604052600436106100f35760003560e01c806382fde0931161008a578063aba8315011610059578063aba831501461033a578063b2a87fc314610365578063d7bb99ba14610390578063d7d1bbdb1461039a576100f3565b806382fde093146102905780638a9cfd55146102bb57806397654a8c146102e4578063a7f337151461030f576100f3565b80634051ddac116100c65780634051ddac146101c6578063481c6a75146101f95780637e7cd1b31461022457806381d12c581461024f576100f3565b806303441006146100f85780630a144391146101215780631fbed5791461015e5780633410452a1461019b575b600080fd5b34801561010457600080fd5b5061011f600480360381019061011a9190610eff565b6103c3565b005b34801561012d57600080fd5b5061014860048036038101906101439190610f8a565b6105f0565b6040516101559190610fd2565b60405180910390f35b34801561016a57600080fd5b5061018560048036038101906101809190610eff565b610610565b6040516101929190610ffc565b60405180910390f35b3480156101a757600080fd5b506101b061064f565b6040516101bd9190611026565b60405180910390f35b3480156101d257600080fd5b506101db61065b565b6040516101f0999897969594939291906110d1565b60405180910390f35b34801561020557600080fd5b5061020e610864565b60405161021b9190610ffc565b60405180910390f35b34801561023057600080fd5b5061023961088a565b6040516102469190611173565b60405180910390f35b34801561025b57600080fd5b5061027660048036038101906102719190610eff565b610918565b604051610287959493929190611195565b60405180910390f35b34801561029c57600080fd5b506102a5610a13565b6040516102b29190611026565b60405180910390f35b3480156102c757600080fd5b506102e260048036038101906102dd9190611324565b610a19565b005b3480156102f057600080fd5b506102f9610b21565b6040516103069190611173565b60405180910390f35b34801561031b57600080fd5b50610324610baf565b6040516103319190611026565b60405180910390f35b34801561034657600080fd5b5061034f610bb5565b60405161035c9190611173565b60405180910390f35b34801561037157600080fd5b5061037a610c43565b6040516103879190611026565b60405180910390f35b610398610c49565b005b3480156103a657600080fd5b506103c160048036038101906103bc9190610eff565b610d2c565b005b600160009054906101000a900473ffffffffffffffffffffffffffffffffffffffff1673ffffffffffffffffffffffffffffffffffffffff163373ffffffffffffffffffffffffffffffffffffffff161461041d57600080fd5b600260095461042c91906113f1565b600082815481106104405761043f611422565b5b9060005260206000209060050201600301541161045c57600080fd5b600081815481106104705761046f611422565b5b906000526020600020906005020160020160149054906101000a900460ff161561049957600080fd5b60008082815481106104ae576104ad611422565b5b906000526020600020906005020160020160009054906101000a900473ffffffffffffffffffffffffffffffffffffffff1673ffffffffffffffffffffffffffffffffffffffff166000838154811061050a57610509611422565b5b90600052602060002090600502016001015460405161052890611482565b60006040518083038185875af1925050503d8060008114610565576040519150601f19603f3d011682016040523d82523d6000602084013e61056a565b606091505b50509050806105ae576040517f08c379a00000000000000000000000000000000000000000000000000000000081526004016105a5906114e3565b60405180910390fd5b6001600083815481106105c4576105c3611422565b5b906000526020600020906005020160020160146101000a81548160ff0219169083151502179055505050565b60086020528060005260406000206000915054906101000a900460ff1681565b6007818154811061062057600080fd5b906000526020600020016000915054906101000a900473ffffffffffffffffffffffffffffffffffffffff1681565b60008080549050905090565b60008060008060006060806060600060025447600080549050600954600160009054906101000a900473ffffffffffffffffffffffffffffffffffffffff166003600460056006548380546106af90611532565b80601f01602080910402602001604051908101604052809291908181526020018280546106db90611532565b80156107285780601f106106fd57610100808354040283529160200191610728565b820191906000526020600020905b81548152906001019060200180831161070b57829003601f168201915b5050505050935082805461073b90611532565b80601f016020809104026020016040519081016040528092919081815260200182805461076790611532565b80156107b45780601f10610789576101008083540402835291602001916107b4565b820191906000526020600020905b81548152906001019060200180831161079757829003601f168201915b505050505092508180546107c790611532565b80601f01602080910402602001604051908101604052809291908181526020018280546107f390611532565b80156108405780601f1061081557610100808354040283529160200191610840565b820191906000526020600020905b81548152906001019060200180831161082357829003601f168201915b50505050509150985098509850985098509850985098509850909192939495969798565b600160009054906101000a900473ffffffffffffffffffffffffffffffffffffffff1681565b6003805461089790611532565b80601f01602080910402602001604051908101604052809291908181526020018280546108c390611532565b80156109105780601f106108e557610100808354040283529160200191610910565b820191906000526020600020905b8154815290600101906020018083116108f357829003601f168201915b505050505081565b6000818154811061092857600080fd5b906000526020600020906005020160009150905080600001805461094b90611532565b80601f016020809104026020016040519081016040528092919081815260200182805461097790611532565b80156109c45780601f10610999576101008083540402835291602001916109c4565b820191906000526020600020905b8154815290600101906020018083116109a757829003601f168201915b5050505050908060010154908060020160009054906101000a900473ffffffffffffffffffffffffffffffffffffffff16908060020160149054906101000a900460ff16908060030154905085565b60095481565b600160009054906101000a900473ffffffffffffffffffffffffffffffffffffffff1673ffffffffffffffffffffffffffffffffffffffff163373ffffffffffffffffffffffffffffffffffffffff1614610a7357600080fd5b600080600181600181540180825580915050039060005260206000209060050201905083816000019081610aa7919061170f565b50828160010181905550818160020160006101000a81548173ffffffffffffffffffffffffffffffffffffffff021916908373ffffffffffffffffffffffffffffffffffffffff16021790555060008160020160146101000a81548160ff0219169083151502179055506000816003018190555050505050565b60048054610b2e90611532565b80601f0160208091040260200160405190810160405280929190818152602001828054610b5a90611532565b8015610ba75780601f10610b7c57610100808354040283529160200191610ba7565b820191906000526020600020905b815481529060010190602001808311610b8a57829003601f168201915b505050505081565b60025481565b60058054610bc290611532565b80601f0160208091040260200160405190810160405280929190818152602001828054610bee90611532565b8015610c3b5780601f10610c1057610100808354040283529160200191610c3b565b820191906000526020600020905b815481529060010190602001808311610c1e57829003601f168201915b505050505081565b60065481565b6002543411610c5757600080fd5b6007339080600181540180825580915050600190039060005260206000200160009091909190916101000a81548173ffffffffffffffffffffffffffffffffffffffff021916908373ffffffffffffffffffffffffffffffffffffffff1602179055506001600860003373ffffffffffffffffffffffffffffffffffffffff1673ffffffffffffffffffffffffffffffffffffffff16815260200190815260200160002060006101000a81548160ff02191690831515021790555060096000815480929190610d25906117e1565b9190505550565b600860003373ffffffffffffffffffffffffffffffffffffffff1673ffffffffffffffffffffffffffffffffffffffff16815260200190815260200160002060009054906101000a900460ff16610d8257600080fd5b60008181548110610d9657610d95611422565b5b906000526020600020906005020160040160003373ffffffffffffffffffffffffffffffffffffffff1673ffffffffffffffffffffffffffffffffffffffff16815260200190815260200160002060009054906101000a900460ff1615610dfc57600080fd5b600160008281548110610e1257610e11611422565b5b906000526020600020906005020160040160003373ffffffffffffffffffffffffffffffffffffffff1673ffffffffffffffffffffffffffffffffffffffff16815260200190815260200160002060006101000a81548160ff02191690831515021790555060008181548110610e8b57610e8a611422565b5b90600052602060002090600502016003016000815480929190610ead906117e1565b919050555050565b6000604051905090565b600080fd5b600080fd5b6000819050919050565b610edc81610ec9565b8114610ee757600080fd5b50565b600081359050610ef981610ed3565b92915050565b600060208284031215610f1557610f14610ebf565b5b6000610f2384828501610eea565b91505092915050565b600073ffffffffffffffffffffffffffffffffffffffff82169050919050565b6000610f5782610f2c565b9050919050565b610f6781610f4c565b8114610f7257600080fd5b50565b600081359050610f8481610f5e565b92915050565b600060208284031215610fa057610f9f610ebf565b5b6000610fae84828501610f75565b91505092915050565b60008115159050919050565b610fcc81610fb7565b82525050565b6000602082019050610fe76000830184610fc3565b92915050565b610ff681610f4c565b82525050565b60006020820190506110116000830184610fed565b92915050565b61102081610ec9565b82525050565b600060208201905061103b6000830184611017565b92915050565b600081519050919050565b600082825260208201905092915050565b60005b8381101561107b578082015181840152602081019050611060565b60008484015250505050565b6000601f19601f8301169050919050565b60006110a382611041565b6110ad818561104c565b93506110bd81856020860161105d565b6110c681611087565b840191505092915050565b6000610120820190506110e7600083018c611017565b6110f4602083018b611017565b611101604083018a611017565b61110e6060830189611017565b61111b6080830188610fed565b81810360a083015261112d8187611098565b905081810360c08301526111418186611098565b905081810360e08301526111558185611098565b9050611165610100830184611017565b9a9950505050505050505050565b6000602082019050818103600083015261118d8184611098565b905092915050565b600060a08201905081810360008301526111af8188611098565b90506111be6020830187611017565b6111cb6040830186610fed565b6111d86060830185610fc3565b6111e56080830184611017565b9695505050505050565b600080fd5b600080fd5b7f4e487b7100000000000000000000000000000000000000000000000000000000600052604160045260246000fd5b61123182611087565b810181811067ffffffffffffffff821117156112505761124f6111f9565b5b80604052505050565b6000611263610eb5565b905061126f8282611228565b919050565b600067ffffffffffffffff82111561128f5761128e6111f9565b5b61129882611087565b9050602081019050919050565b82818337600083830152505050565b60006112c76112c284611274565b611259565b9050828152602081018484840111156112e3576112e26111f4565b5b6112ee8482856112a5565b509392505050565b600082601f83011261130b5761130a6111ef565b5b813561131b8482602086016112b4565b91505092915050565b60008060006060848603121561133d5761133c610ebf565b5b600084013567ffffffffffffffff81111561135b5761135a610ec4565b5b611367868287016112f6565b935050602061137886828701610eea565b925050604061138986828701610f75565b9150509250925092565b7f4e487b7100000000000000000000000000000000000000000000000000000000600052601260045260246000fd5b7f4e487b7100000000000000000000000000000000000000000000000000000000600052601160045260246000fd5b60006113fc82610ec9565b915061140783610ec9565b92508261141757611416611393565b5b828204905092915050565b7f4e487b7100000000000000000000000000000000000000000000000000000000600052603260045260246000fd5b600081905092915050565b50565b600061146c600083611451565b91506114778261145c565b600082019050919050565b600061148d8261145f565b9150819050919050565b7f5472616e73666572206661696c65642e00000000000000000000000000000000600082015250565b60006114cd60108361104c565b91506114d882611497565b602082019050919050565b600060208201905081810360008301526114fc816114c0565b9050919050565b7f4e487b7100000000000000000000000000000000000000000000000000000000600052602260045260246000fd5b6000600282049050600182168061154a57607f821691505b60208210810361155d5761155c611503565b5b50919050565b60008190508160005260206000209050919050565b60006020601f8301049050919050565b600082821b905092915050565b6000600883026115c57fffffffffffffffffffffffffffffffffffffffffffffffffffffffffffffffff82611588565b6115cf8683611588565b95508019841693508086168417925050509392505050565b6000819050919050565b600061160c61160761160284610ec9565b6115e7565b610ec9565b9050919050565b6000819050919050565b611626836115f1565b61163a61163282611613565b848454611595565b825550505050565b600090565b61164f611642565b61165a81848461161d565b505050565b5b8181101561167e57611673600082611647565b600181019050611660565b5050565b601f8211156116c35761169481611563565b61169d84611578565b810160208510156116ac578190505b6116c06116b885611578565b83018261165f565b50505b505050565b600082821c905092915050565b60006116e6600019846008026116c8565b1980831691505092915050565b60006116ff83836116d5565b9150826002028217905092915050565b61171882611041565b67ffffffffffffffff811115611731576117306111f9565b5b61173b8254611532565b611746828285611682565b600060209050601f8311600181146117795760008415611767578287015190505b61177185826116f3565b8655506117d9565b601f19841661178786611563565b60005b828110156117af5784890151825560018201915060208501945060208101905061178a565b868310156117cc57848901516117c8601f8916826116d5565b8355505b6001600288020188555050505b505050505050565b60006117ec82610ec9565b91507fffffffffffffffffffffffffffffffffffffffffffffffffffffffffffffffff820361181e5761181d6113c2565b5b60018201905091905056fea26469706673582212200e34487796bc336a3070dd51960ec770139bf7e5828ea4f42d8b4505e70dc74864736f6c634300081b0033a26469706673582212207e8c1e5e1cf604dfabef2624fdcc8ca28ec617fb841065a0959f7fa58ac3fdee64736f6c634300081b0033",
  "linkReferences": {},
  "deployedLinkReferences": {}
}